:020000040000FA
:040000004AEF00F0D3
:100008003E82D9CF1BF0DACF1CF0F3CF1DF0F4CF2E
:100018001EF09EAA31D0000E216E000E206E000E3A
:100028001F6E3EEC0AF0216E020E2118D8B413D0D0
:1000380016D03EEC0AF0216E20BE06D020500BE10F
:100048000C0E1F5CD8B007D0010E056E215093EC42
:1000580009F01F4A202A030E2118D8A4EAD7350E22
:10006800166E000E176E2C0E186E000E196EC6EC6A
:1000780007F0010E0001C66F1EC0F4FF1DC0F3FF9C
:100088001CC0DAFF1BC0D9FF3E921100A7EF09F090
:100300000001000A006400E80310274C3A2025751C
:100310002020202020202000523A20257520202057
:1003200020202020005075736820427574746F6E11
:0B03300000746F207374617274000091
:10033C00000E0001DF6F0A0EDE6FD9C0DBF0DAC0F1
:10034C00DCF0DB1FDC1FDB4BDC2BD751DB27D85160
:10035C00DC23DB51DE5DDF51800ADD6FDC51800A6E
:10036C00DD59D8B055D0C451C511D8A428D0350EFC
:10037C00D26F000ED36F2C0ED46F000ED56F55ECD0
:10038C0009F000EC0AF00001C44BC52B060E00016D
:10039C00DC6F130EDB6FAD0EE82EFED7DB2FFCD718
:1003AC00DC2FFAD700D0350E0001D26F000ED36FC0
:1003BC002C0ED46F000ED56F94EC07F060D1350E77
:1003CC000001D26F000ED36F2C0ED46F000ED56FC0
:1003DC0055EC09F000EC0AF00001C44BC52B060EDD
:1003EC000001DC6F130EDB6FAD0EE82EFED7DB2F9A
:1003FC00FCD7DC2FFAD700D0350E0001D26F000EDF
:10040C00D36F2C0ED46F000ED56F94EC07F037D150
:10041C00D7C0DBF0D8C0DCF00001DB1FDC1FDB4BEE
:10042C00DC2BD951DB27DA51DC23DB51DE5DDF51CC
:10043C00800ADD6FDC51800ADD59D8B055D0C4512B
:10044C00C511D8A428D0350ED26F000ED36F2C0E48
:10045C00D46F000ED56F40EC09F0F1EC09F00001FF
:10046C00C44BC52B060E0001DC6F130EDB6FAD0EFB
:10047C00E82EFED7DB2FFCD7DC2FFAD700D0350EB9
:10048C000001D26F000ED36F2C0ED46F000ED56FFF
:10049C0094EC07F0F4D0350E0001D26F000ED36F40
:1004AC002C0ED46F000ED56F40EC09F0F1EC09F076
:1004BC000001C44BC52B060E0001DC6F130EDB6F65
:1004CC00AD0EE82EFED7DB2FFCD7DC2FFAD700D0F1
:1004DC00350E0001D26F000ED36F2C0ED46F000EB0
:1004EC00D56F94EC07F0CBD00001DABF63D0DA51B2
:1004FC0004E1C90ED95DD8A05DD0D8BF5BD0D8516E
:10050C0004E1C90ED75DD8A055D0C451C511D8A4EB
:10051C0028D0350ED26F000ED36F2C0ED46F000E78
:10052C00D56F6AEC09F00FEC0AF00001C44BC52B37
:10053C00060E0001DC6F130EDB6FAD0EE82EFED73E
:10054C00DB2FFCD7DC2FFAD700D0350E0001D26F91
:10055C00000ED36F2C0ED46F000ED56F94EC07F0F9
:10056C008ED0350E0001D26F000ED36F2C0ED46FCF
:10057C00000ED56F6AEC09F00FEC0AF00001C44BC9
:10058C00C52B060E0001DC6F130EDB6FAD0EE82ED3
:10059C00FED7DB2FFCD7DC2FFAD700D0350E0001AD
:1005AC00D26F000ED36F2C0ED46F000ED56F94EC5F
:1005BC0007F065D00001DABF06D0DA5160E1C80E51
:1005CC00D95DD8B05CD0D8BF06D0D85158E1C80E90
:1005DC00D75DD8B054D0C451C511D8A428D0350E8D
:1005EC00D26F000ED36F2C0ED46F000ED56F55EC5E
:1005FC0009F000EC0AF00001C44BC52B060E0001FB
:10060C00DC6F130EDB6FAD0EE82EFED7DB2FFCD7A5
:10061C00DC2FFAD700D0350E0001D26F000ED36F4D
:10062C002C0ED46F000ED56F94EC07F028D0350E3D
:10063C000001D26F000ED36F2C0ED46F000ED56F4D
:10064C0055EC09F000EC0AF00001C44BC52B060E6A
:10065C000001DC6F130EDB6FAD0EE82EFED7DB2F27
:10066C00FCD7DC2FFAD700D0350E0001D26F000E6C
:10067C00D36F2C0ED46F000ED56F94EC07F0350EA3
:10068C000001D26F000ED36F2C0ED46F000ED56FFD
:10069C0094EC07F01200000EB86E000EB96E720EDC
:1006AC00D36ED3A4FED7B4EC06F039EC0AF01EECF2
:1006BC000AF0F6EC07F0E0EC09F0350E0001D26F11
:1006CC00000ED36F2C0ED46F000ED56F94EC07F088
:1006DC009486E40E0001CB6F000ECC6F250ECD6F0F
:1006EC00030ECE6FCD51CE11D8A4000ECF6F0BECF4
:1006FC0006F0E40E286E000E296EFCEC08F0020EDB
:10070C0014EC09F0E40E0001CB6F000ECC6F310E2F
:10071C00CD6F030ECE6FCD51CE11D8A4000ECF6F7E
:10072C000BEC06F0E40E286E000E296EFCEC08F0C3
:10073C0082A6FED7020E0001E16F040EE06FBA0E26
:10074C00E82EFED7E02FFCD7E12FFAD700F0000EF1
:10075C00266E010E7FEC09F0000E0001C66F000E34
:10076C00F46FC651D8A430D0F70E226E000E236E53
:10077C00F50E246E000E256E6FEC08F0F5C022F01D
:10078C00F6C023F0000E256E640E246E21EC08F0EA
:10079C0022C0F5F023C0F6F0F7C022F0F8C023F029
:1007AC00000E256E640E246E21EC08F022C0F7F0CA
:1007BC0023C0F8F0F7C0D7F0F8C0D8F0F5C0D9F0E6
:1007CC00F6C0DAF09EEC01F00001C605D8A4C9D73A
:1007DC00F451D8A4C6D7000EF96F85D0F951E06F4B
:1007EC00E16BE01FE11FE04BE12BC451E027C55149
:1007FC00E123D890E037E137600EE025D96E000E8A
:10080C00E121DA6EDE50DE10D8A40BD0350ED26F9B
:10081C00000ED36F2C0ED46F000ED56F2BEC09F09D
:10082C0048D00001F951E06FE16BE01FE11FE04B94
:10083C00E12BC451E027C551E123D890E037E137D3
:10084C00600EE025D96E000EE121DA6EDE04DE10BA
:10085C00D8A40BD0350ED26F000ED36F2C0ED46FE4
:10086C00000ED56F40EC09F024D00001F951E06F77
:10087C00E16BE01FE11FE04BE12BC451E027C551B8
:10088C00E123D890E037E137600EE025D96E000EF9
:10089C00E121DA6E020EDE18DE10D8A40AD0350E75
:1008AC00D26F000ED36F2C0ED46F000ED56F55EC9B
:1008BC0009F0060E0001E16F130EE06FAD0EE82E8D
:1008CC00FED7E02FFCD7E12FFAD700D0350E000170
:1008DC00D26F000ED36F2C0ED46F000ED56F94EC2C
:1008EC0007F00001F92BF951E06FE16BC451E05DA9
:1008FC00C551E159D8A072D7010E32D7000120EEB4
:10090C0001F0CB51D926CC51DA22DF50D8B435D0F6
:10091C0020EE07F0CB51D926CC51DA22DECFCDF028
:10092C00DDCFCEF0CBC0D9FFCCC0DAFFDF50CF6F1C
:10093C00CF51226E236A20EE07F0CB51D926CC5131
:10094C00DA22DECF24F0DDCF25F0BAEC09F022C09C
:10095C0028F023C029F0000E2B6E640E2A6E0FECCB
:10096C0007F0281E291E284A292A0001CD512824C7
:10097C00D06FCE512920D16F23D0CBC0D9FFCCC0A2
:10098C00DAFFDF50CD6FCD51226E236A20EE07F0D7
:10099C00CB51D926CC51DA22DECF24F0DDCF25F095
:1009AC00BAEC09F022C028F023C029F0000E2B6EFF
:1009BC00640E2A6E0FEC07F028C0D0F029C0D1F0DD
:1009CC00D0C0CDF0D1C0CEF00001D890CD37CE370D
:1009DC00D890CD37CE37CDC0D0F0CEC0D1F020EEF0
:1009EC0002F0CB51D926CC51DA22DECFCDF0DDCFBF
:1009FC00CEF0CDC0D9FFCEC0DAFFD0C0DFFF20EEE5
:100A0C0004F0CB51D926CC51DA22DECFCDF0DDCF9C
:100A1C00CEF0CDC0D9FFCEC0DAFFD1513F0BDF6E87
:100A2C0020EE01F0CB51D926CC51DA22DF50D8B4CC
:100A3C0015D020EE06F0CB51D926CC51DA22DF505E
:100A4C00CD6F010ECE6FCD2B02D0D890CE37CD2FDF
:100A5C00FCD70001CE518A108A6E120020EE06F0EF
:100A6C00CB51D926CC51DA22DF50CD6F010ECE6F8F
:100A7C00CD2B02D0D890CE37CD2FFCD70001CE5144
:100A8C00FF0A8A148A6E120020EE01F00F50D9264C
:100A9C001050DA22DF50D8B434D020EE07F00F50CB
:100AAC00D9261050DA22DECF11F0DDCF12F00FC0B4
:100ABC00D9FF10C0DAFFDF50136E1350016E026ABB
:100ACC0020EE07F00F50D9261050DA22DECF03F0BB
:100ADC00DDCF04F0CDEC09F001C007F002C008F046
:100AEC00000E0A6E640E096E52EC07F0071E081E0B
:100AFC00074A082A11500724146E12500820156E4C
:100B0C0023D00FC0D9FF10C0DAFFDF50116E115087
:100B1C00016E026A20EE07F00F50D9261050DA222F
:100B2C00DECF03F0DDCF04F0CDEC09F001C007F00F
:100B3C0002C008F0000E0A6E640E096E52EC07F04B
:100B4C0007C014F008C015F014C011F015C012F055
:100B5C00D89011361236D8901136123611C014F0C6
:100B6C0012C015F020EE02F00F50D9261050DA22E8
:100B7C00DECF11F0DDCF12F011C0D9FF12C0DAFFB9
:100B8C0014C0DFFF20EE04F00F50D9261050DA22EB
:100B9C00DECF11F0DDCF12F011C0D9FF12C0DAFF99
:100BAC0015503F0BDF6E20EE01F00F50D926105080
:100BBC00DA22DF50D8B414D020EE06F00F50D9262C
:100BCC001050DA22DF50116E010E126E112A02D073
:100BDC00D8901236112EFCD712508A108A6E120041
:100BEC0020EE06F00F50D9261050DA22DF50116E8D
:100BFC00010E126E112A02D0D8901236112EFCD78B
:100C0C001250FF0A8A148A6E1200D00E0001D66FA1
:100C1C00000ED76F86D0250EDB19D8B404D006D0C1
:100C2C00CB4BCC2B7ED0000ED56F0AD0CBC0D9FFCE
:100C3C00CCC0DAFFDBC0DFFFF3D7C00ED5131BD05F
:100C4C00CDC0D2F0CEC0D3F0CFC0D4F0CD2B000E9F
:100C5C00CE23CF23D2C0F6FFD3C0F7FFD4C0F8FF0A
:100C6C000800F5CFDBF0DB51000AD8B470D0750A60
:100C7C00D8B4E3D7DBD7D6C0D9FFD7C0DAFFDECFE5
:100C8C00D8F0DDCFD9F0020ED627000ED723010EF7
:100C9C00DB6F11D0DB51020D010EF324F66E030E47
:100CAC00F420F76E0900F550D85D0900F550D959BC
:100CBC00D8A005D0DB2B050EDB19D8A4EBD7DBC0F5
:100CCC00DAF02BD0DA51020D010EF324F66E030E7E
:100CDC00F420F76E0900F5CF24F00A00F5CF25F0CB
:100CEC00D8C022F0D9C023F021EC08F022C0C7F004
:100CFC0023C0C8F0000E0001CA6F0A0EC96FB9EC10
:100D0C0008F00001C751300FDB6FCBC0D9FFCCC04E
:100D1C00DAFFDBC0DFFFCB4BCC2BDA07DA29D8A408
:100D2C00D1D7CDC0D2F0CEC0D3F0CFC0D4F0CD2B24
:100D3C00000ECE23CF23D2C0F6FFD3C0F7FFD4C012
:100D4C00F8FF0800F5CFDBF0DB51D8A464D7CBC09B
:100D5C00D9FFCCC0DAFF000EDF6E1200000E8B6ED6
:100D6C00000E896E000E8C6E000E946E000E956E49
:100D7C00000E926E0A0EE82EFED7030E4AEC08F017
:100D8C000D0E286EFC0EE82EFED7282EFCD7030E77
:100D9C004AEC08F0850EE82EFED700F0030E4AEC64
:100DAC0008F0210EE82EFED700F0020E4AEC08F0F7
:100DBC00000E266E280E7FEC09F0210EE82EFED7D1
:100DCC0000F0000E266E080E7FEC09F0210EE82EC6
:100DDC00FED700F0000E266E010E7FEC09F00D0E12
:100DEC00286EFC0EE82EFED7282EFCD7000E266EA1
:100DFC00060E7FEC09F0210EE82EFED700F0000E57
:100E0C00266E0E0E7FEC09F0210EE82EFED700F0B8
:100E1C001200000E0001C86F2BAE06D02A6C2B1EE0
:100E2C00D8B02B2A010EC86F29AE06D0286C291E0B
:100E3C00D8B0292A010EC81B000ECA6F000EC96F4C
:100E4C002A502B10D8B41CD0010EC76F04D0D890E8
:100E5C002A362B36C72B2BAEFAD7D890C937CA37C0
:100E6C002A50285C2B502958D8A005D02A50285E2F
:100E7C002B50295AC981D8902B322A32C72FEDD743
:100E8C00C851D8B404D0C96DCA1FD8B0CA2BC9C0B8
:100E9C0028F0CAC029F01200000E0C6E0AAE06D063
:100EAC00096C0A1ED8B00A2A010E0C6E08AE06D0C8
:100EBC00076C081ED8B0082A010E0C1A000E0E6E14
:100ECC00000E0D6E09500A10D8B41CD0010E0B6E1A
:100EDC0004D0D89009360A360B2A0AAEFAD7D89025
:100EEC000D360E360950075C0A500858D8A005D0AC
:100EFC000950075E0A50085A0D80D8900A32093200
:100F0C000B2EEDD70C50D8B404D00D6C0E1ED8B0EF
:100F1C000E2A0DC007F00EC008F01200010E366E3E
:100F2C00000E356ED2C0CBF0D3C0CCF084EC04F004
:100F3C00010E2D6E000E2C6ED4C0CBF0D5C0CCF0B3
:100F4C0084EC04F0820E0001D66FDD0EE82EFED785
:100F5C00D62FFCD700D0010E366E000E356ED2C0E7
:100F6C00CBF0D3C0CCF084EC04F0010E2D6E000E4F
:100F7C002C6ED4C0CBF0D5C0CCF084EC04F01200B5
:100F8C00010E366E000E356E16C00FF017C010F045
:100F9C004AEC05F0010E2D6E000E2C6E18C00FF0F1
:100FAC0019C010F04AEC05F0820E1A6EDE0EE82E17
:100FBC00FED71A2EFCD7010E366E000E356E16C0FB
:100FCC000FF017C010F04AEC05F0010E2D6E000E5C
:100FDC002C6E18C00FF019C010F04AEC05F012007E
:100FEC00000E256EC70E246EDBEC08F0000E356E7D
:100FFC00010E366E790E376E0F0E386E780E396E16
:10100C000F0E3A6E000E3B6E24C03CF025C03DF036
:10101C00000E2C6E010E2D6E770E2E6E0F0E2F6E97
:10102C00760E306E0F0E316E020E326E24C033F01F
:10103C0025C034F01200000E276E000E266E2450D0
:10104C002510D8B41CD0010E286E04D0D8902436AC
:10105C002536282A25AEFAD7D8902636273624509E
:10106C00225C25502358D8A005D02450225E255050
:10107C00235A2680D89025322432282EEDD726C02C
:10108C0022F027C023F01200256E8CCF22F0FC0E2C
:10109C0022162540E8423F0B030B22108C6E8CCF9E
:1010AC0022F0F90E221625C023F0030E2316D89039
:1010BC0023342210246ED8902436D8902436D8901D
:1010CC0024348B6E2BEC0AF0030EE82EFED700F0C6
:1010DC001200685069CF26F0276A26C027F0266ACE
:1010EC002612000E271222C0D9FF23C0DAFF26C019
:1010FC00DEFF27C0DDFF665067CF26F0276A26C0CB
:10110C0027F0266A2612000E271224C0D9FF25C00C
:10111C00DAFF26C0DEFF27C0DDFF1200046E8CCF85
:10112C0001F0FC0E01160440E8423F0B030B0110CA
:10113C008C6E8CCF01F0F90E011604C002F0030E78
:10114C000216D89002340110036ED8900336D89052
:10115C000336D89003348B6E32EC0AF0030EE82E73
:10116C00FED700F012000001C951CA11D8B418D032
:10117C00010E296E04D0D890C937CA37292ACAAFB4
:10118C00FAD7C951C75DCA51C859D8A004D0C951A2
:10119C00C75FCA51C85BD890CA33C933292EF1D75F
:1011AC00C7C0C7F0C8C0C8F0120093909392939434
:1011BC0093960C0E7F6E800E7E6E6F0E6F6E000E11
:1011CC006E6EC70E7B6E000E7A6E000E236E630E73
:1011DC00226E2244E846FC0B796E000E786E224497
:1011EC00E846FC0B776E000E766E12000FD0010EE7
:1011FC00266E28C0D9FF29C0DAFFDF507FEC09F03A
:10120C00284A292A210EE82EFED700F028C0D9FF43
:10121C0029C0DAFFDF50D8B41200E9D7286E2804B1
:10122C00D8A405D0000E266E800E7FEC09F0020EBD
:10123C002818D8A405D0000E266EC00E7FEC09F03D
:10124C00210EE82EFED700F01200000E366E450E71
:10125C00356ED2C0CBF0D3C0CCF084EC04F0000ED1
:10126C002D6E410E2C6ED4C0CBF0D5C0CCF084ECDE
:10127C0004F01200010E366E410E356ED2C0CBF06A
:10128C00D3C0CCF084EC04F0000E2D6E410E2C6E0D
:10129C00D4C0CBF0D5C0CCF084EC04F01200000E1E
:1012AC00366E450E356ED2C0CBF0D3C0CCF084EC8C
:1012BC0004F0010E2D6E410E2C6ED4C0CBF0D5C0B7
:1012CC00CCF084EC04F01200010E366E450E356E37
:1012DC00D2C0CBF0D3C0CCF084EC04F0010E2D6E58
:1012EC00410E2C6ED4C0CBF0D5C0CCF084EC04F005
:1012FC001200276E26B002D0899C01D0898C273829
:10130C000F0B0F0B4AEC08F027500F0B4AEC08F0B0
:10131C00210EE82EFED700F01200066E05B002D0AA
:10132C00899C01D0898C06380F0B0F0B94EC08F0BC
:10133C0006500F0B94EC08F0210EE82EFED700F0AF
:10134C00120000EE60F0670EEE6AE806FDE100EEBA
:10135C002CF0120EEE6AE806FDE13E903E92000E75
:10136C00F86E000151EF03F022502402F3CF26F067
:10137C00F4CF27F022502502F350272623502402C5
:10138C00F350272626C022F027C023F0120001506C
:10139C000302F3CF05F0F4CF06F001500402F35032
:1013AC00062602500302F350062605C001F006C0C3
:1013BC0002F01200000E8B6E948EF20ED36ED3A43C
:1013CC00FED7CE0EAF6E000EB06EAA86AC84AB8884
:1013DC00AB8EAC8A1200D8900001C435D96EC535DD
:1013EC00DA6E600ED926000EDA22020EDE6E000EC8
:1013FC00DD6E1200D8900001C435D96EC535DA6E99
:10140C00600ED926000EDA22010EDE6E000EDD6EA5
:10141C001200D8900001C435D96EC535DA6E600E55
:10142C00D926000EDA22000EDE6E000EDD6E1200E2
:10143C00000E896E0C0E926E460E636E460E626E38
:10144C00090EB76E180E606E12008B80030EE82E1C
:10145C00FED700F08B9012008B80030EE82EFED787
:10146C0000F08B901200D08EF28EF28C9D8A1200BE
:08147C009EAAFED7AE5012003B
:020000040020DA
:08000000FFFFFFFFFFFFFFFF00
:020000040030CA
:0E000000FFC80F3F3C1D81FF0FC00FE00F40F7
:00000001FF
